{
  "contractName": "ProofOfExistence3",
  "abi": [
    {
      "inputs": [
        {
          "internalType": "string",
          "name": "document",
          "type": "string"
        }
      ],
      "name": "notarize",
      "outputs": [],
      "stateMutability": "nonpayable",
      "type": "function"
    },
    {
      "inputs": [
        {
          "internalType": "string",
          "name": "document",
          "type": "string"
        }
      ],
      "name": "proofFor",
      "outputs": [
        {
          "internalType": "bytes32",
          "name": "",
          "type": "bytes32"
        }
      ],
      "stateMutability": "pure",
      "type": "function",
      "constant": true
    },
    {
      "inputs": [
        {
          "internalType": "string",
          "name": "document",
          "type": "string"
        }
      ],
      "name": "checkDocument",
      "outputs": [
        {
          "internalType": "bool",
          "name": "",
          "type": "bool"
        }
      ],
      "stateMutability": "view",
      "type": "function",
      "constant": true
    }
  ],
  "bytecode": "0x608060405234801561001057600080fd5b50610498806100206000396000f3fe608060405234801561001057600080fd5b50600436106100415760003560e01c806353fb9233146100465780637183616c14610076578063f6c1acdf14610092575b600080fd5b610060600480360381019061005b9190610302565b6100c2565b60405161006d9190610366565b60405180910390f35b610090600480360381019061008b91906103e1565b6100e1565b005b6100ac60048036038101906100a79190610302565b610140565b6040516100b99190610447565b60405180910390f35b6000806100ce83610140565b90506100d981610151565b915050919050565b600061013083838080601f016020809104026020016040519081016040528093929190818152602001838380828437600081840152601f19601f82011690508083019250505050505050610140565b905061013b8161017a565b505050565b600081805190602001209050919050565b600080600083815260200190815260200160002060009054906101000a900460ff169050919050565b600160008083815260200190815260200160002060006101000a81548160ff02191690831515021790555050565b6000604051905090565b600080fd5b600080fd5b600080fd5b600080fd5b6000601f19601f8301169050919050565b7f4e487b7100000000000000000000000000000000000000000000000000000000600052604160045260246000fd5b61020f826101c6565b810181811067ffffffffffffffff8211171561022e5761022d6101d7565b5b80604052505050565b60006102416101a8565b905061024d8282610206565b919050565b600067ffffffffffffffff82111561026d5761026c6101d7565b5b610276826101c6565b9050602081019050919050565b82818337600083830152505050565b60006102a56102a084610252565b610237565b9050828152602081018484840111156102c1576102c06101c1565b5b6102cc848285610283565b509392505050565b600082601f8301126102e9576102e86101bc565b5b81356102f9848260208601610292565b91505092915050565b600060208284031215610318576103176101b2565b5b600082013567ffffffffffffffff811115610336576103356101b7565b5b610342848285016102d4565b91505092915050565b60008115159050919050565b6103608161034b565b82525050565b600060208201905061037b6000830184610357565b92915050565b600080fd5b600080fd5b60008083601f8401126103a1576103a06101bc565b5b8235905067ffffffffffffffff8111156103be576103bd610381565b5b6020830191508360018202830111156103da576103d9610386565b5b9250929050565b600080602083850312156103f8576103f76101b2565b5b600083013567ffffffffffffffff811115610416576104156101b7565b5b6104228582860161038b565b92509250509250929050565b6000819050919050565b6104418161042e565b82525050565b600060208201905061045c6000830184610438565b9291505056fea264697066735822122019199de70c9f99220e1ca4794ee4038192a927aeaaa44362ca491c1e014ef70464736f6c634300080a0033",
  "immutableReferences": {},
  "source": "// SPDX-License-Identifier: MIT\npragma solidity >=0.4.22 <0.9.0;\n\ncontract ProofOfExistence3 {\n\n    mapping(bytes32 => bool) private proofs;\n\n    // store a proof of existence in the contract state\n    function storeProof(bytes32 proof) internal {\n        proofs[proof] = true;\n    }\n\n    // calculate and store the proof for a document\n    function notarize(string calldata document) external {\n        bytes32 proof = proofFor(document);\n        storeProof(proof);\n    }\n\n    // helper function to get a document's sha256\n    function proofFor(string memory document) pure public returns (bytes32) {\n        return keccak256(bytes(document));\n    }\n\n    // check if a document has been notarized\n    function checkDocument(string memory document) public view returns (bool) {\n        bytes32 proof = proofFor(document);\n        return hasProof(proof);\n    }\n\n    // returns true if proof is stored\n    function hasProof(bytes32 proof) internal view returns (bool) {\n        return proofs[proof];\n    }\n}\n",
  "sourcePath": "/Users/robimarkac/Development/EVM/proof-of-existence/contracts/ProofOfExistence3.sol",
  "compiler": {
    "name": "solc",
    "version": "0.8.10+commit.fc410830.Emscripten.clang"
  },
  "schemaVersion": "3.4.4",
  "updatedAt": "2022-01-11T12:15:27.613Z",
  "networkType": "ethereum",
  "devdoc": {
    "kind": "dev",
    "methods": {},
    "version": 1
  },
  "userdoc": {
    "kind": "user",
    "methods": {},
    "version": 1
  }
}